:03000000020DB539
:0C0DB500787FE4F6D8FD75815F020DFC2C
:100D180025642F2564202825642E25642900202D8C
:100D280020496E76616C69642063686172616374DE
:100D380065722073656E740D0A002A2A2A2A2A2AE7
:100D48002A2A2A2A2A2A2A2A2A2A2A2A2A2A2A2AFB
:100D58002A2A2A2A2A2A2A2A2A0D0A002A2A2A2A52
:100D68002A2A2A2A437269636B657473636F7265F2
:100D78002A2A2A2A2A2A2A2A2A2A2A0D0A005072C4
:100D880065737320612063686172616374657220A2
:100D9800746F2073746172742067616D650D0A0049
:0D0DA800496E6E696E677320456E647300BE
:02108900C10B99
:100B5C00120F47121057120F0F1210777536FF75C0
:100B6C00370D753818855E39855F3A85473B854862
:100B7C003C855C3D855D3E85493F854A407B007ADE
:100B8C0000792212085C7F807E001210337B007A81
:100B9C00007922120FEA7FC07E001210337B007A9C
:100BAC0000794B120FEAE55D6414455C6008E5487A
:100BBC00640A45477005120F7680A11210778F32A8
:100BCC00E532120C810C232E0C1B310C13320C0B46
:100BDC00330C03340BFB350BF3360C2D650C2D6EDF
:100BEC000C377700000C4F055FE55F7002055E0562
:100BFC005FE55F7002055E055FE55F7002055E05EF
:100C0C005FE55F7002055E055FE55F7002055E05DE
:100C1C005FE55F7002055E054AE54A70370549805D
:100C2C0033055FE55F7014055E80100548E548707C
:100C3C00020547054AE54A7002054974E02532F57C
:100C4C00328011AF321210817BFF7A0D7926120F90
:0C0C5C00C5020B68AF32120ECA020B6812
:100F0F007BFF7A0D7942120FC57BFF7A0D79641240
:100F1F000FC57BFF7A0D7942120FC57BFF7A0D79D2
:100F2F0086120FC5E4F55EF55FF547F548F55CF5FC
:080F3F005DF549F54AF54B226E
:100ECA008F33300B12E4F54B7F01FE1210337F642F
:100EDA007E00121013C20BE54A64064549700EF5EE
:100EEA0049F54A055DE55D7002055CD20B75370070
:100EFA00753800753933753A00753B017B007A0005
:050F0A00794B020E41CD
:100F76007FC07E001210337BFF7A0D79A8120FEA2C
:100F86007F887E131210137F017E001210337F6458
:080F96007E00121013020F0F80
:04108B00C10AC109CC
:10105700758920758DCC759853D28ED2ACD2AF22BC
:081081008F99300AFDC20A221A
:100FC5008B338A348935AB33AA34A935120C686062
:100FD500130535E5357002053414F9120C68FF1256
:050FE500108180E222F2
:09107700E4FF3009FDC209AF9944
:01108000224D
:0300230002106761
:10106700309905C299D20A32309804C298D209320F
:04100F007F047E00DC
:10101300E4FDFCC3ED9FEC9E5015E4FBFA0BBB0013
:0F102300010ABA01F8BB63F50DBD00010C80E4B2
:01103200229B
:100F4700E4F5A0C282C280C2817F38FE121033123C
:100F5700100F7F0612103312100F7F0C121033126E
:0F0F6700100F7F0112103312100F7F8002103312
:10103300C280C281D2828FA07F0A7E00121013C2A7
:02104300822207
:10104500D280C281D2828FA07F0A7E00121013C285
:021055008222F5
:100FEA008B338A348935AB33AA34A935120C68603D
:100FFA00130535E5357002053414F9120C68FF1231
:05100A00104580E22208
:100DC100020B5CE493A3F8E493A34003F68001F2E1
:100DD10008DFF48029E493A3F85407240CC8C33333
:100DE100C4540F4420C8834004F456800146F6DF02
:100DF100E4800B0102040810204080901089E47EF9
:100E0100019360BCA3FF543F30E509541FFEE493F6
:100E1100A360010ECF54C025E060A840B8E493A3BD
:100E2100FAE493A3F8E493A3C8C582C8CAC583CAE8
:100E3100F0A3C8C582C8CAC583CADFE9DEE780BEA0
:01108F000060
:100C6800BB010689828A83E0225002E722BBFE028A
:090C7800E32289828A83E49322BD
:100C8100D083D082F8E4937012740193700DA3A302
:100C910093F8740193F5828883E473740293686016
:060CA100EFA3A3A380DF16
:10080000E5422436F8E6054222783330070278368E
:10081000E475F001120D08020C682000EB7F2ED267
:10082000008018EF540F2490D43440D4FF30040BD0
:10083000EF24BFB41A0050032461FFE543600215A2
:10084000430546E5467002054530070D7833E475EB
:10085000F001120D08EF020CD4020F9E7403D207B0
:100860008003E4C207F5428B338A348935E4F543CB
:10087000F545F546E54360077F2012083B80F57596
:1008800044FFC201C200C202C203C205C206C208BE
:10089000120809FF700D3007057F0012084CAF46A3
:1008A000AE4522B4255FC2D5C204120809FF24D088
:1008B000B40A00501A75F00A784330D50508B6FF1F
:1008C0000106C6A426F620D5047002D20380D924DE
:1008D000CFB41A00EF5004C2E5D204020A4CD20190
:1008E00080C6D20080C0D20280BCD2D580BAD205E8
:1008F00080B47F2012083B2002077401B5430040FA
:10090000F1120800FF12083B020874D208D20680D8
:1009100095120800FB120800FA120800F94A4B7001
:1009200006791D7A0B7BFF20022EE543602A7E00AC
:100930008E82758300120CA760060EEE654470F07F
:10094000C2D5EBC0E0EAC0E0E9C0E0EE120A93D005
:10095000E0F9D0E0FAD0E0FB120C68FF60AAEBC02F
:10096000E0EAC0E0E9C0E012083BD0E02401F9D0A1
:10097000E03400FAD0E0FBE5440460DCD544D980E3
:10098000877BFF7A0A798FD202809C791080027966
:1009900008C206C2088008D2D5790A8004790AC242
:1009A000D5E544047002F544E4FAFDFEFF120800A8
:1009B000FC7B08200113120800FD7B1030000A1296
:1009C0000800FE120800FF7B20EC3382D592D55040
:1009D00013C3E43000069FFFE49EFEE42001039D64
:1009E000FDE49CFCE4CBF8C201EC700CCFCECDCC86
:1009F000E824F8F870F38017C3EF33FFEE33FEED11
:100A000033FDEC33FCEB33FB994002FB0FD8E9EBF1
:100A1000300105F8D0E0C448B201C0E00AEC4D4E08
:100A20004F78207B0070C2EAB5440040BCC0E012A1
:100A30000A95D0F0D0E0200104C4C0E0C4B201C0E7
:100A4000F0120824D0F0D5F0EB020874120C8109E2
:100A50001153098B5808E24C08DE42098F4F099761
:0F0A60004409974908F743099D550981460981C3
:100A6F00450981470B3D5008E62D08EA2E090D2B4D
:100A7F0008EE23090B200B262A08A64800000905BB
:100A8F003F3F3F00790AA2D5200314300509B91062
:100A9F00020404B9080104A2D52006025001042063
:100AAF0002689202B543005034C0E07F2030031932
:100ABF007F30A20272067205500F120AECC202C2F8
:100ACF0006C205C2087F30800F300503E9C0E0126F
:100ADF00083B300503D0E0F9D0E0B543CC30051723
:100AEF007F30B9100C12083B7F583004077F788095
:100AFF0003B9080312083B3002057F2D02083B7F24
:100B0F00202008F87F2B2006F322920280CF286E38
:100B1F00756C6C2900D2011208003001F8C20178FF
:100B2F004330D50108F60208A62D50434958120844
:100B3F00002403B405004001E4900B389312082CF5
:0D0B4F00743A12082CD20375430402098B7E
:100E41008B348A358936E4F53CF53DD3E53B940096
:100E5100E53A64809480406AAB34AA35A936853D71
:100E610082853C83120CA7600A053DE53D70E905CA
:100E71003C80E5AB37AA38A939120C6860340539D2
:100E8100E5397002053814F9120C68FFAB34AA3544
:100E9100A936053DE53DAC3C7002053C14F5828C5C
:100EA10083EF120CE6E53B153B7002153A14453A07
:100EB10070C1AB34AA35A936853D82853C83E412E5
:090EC1000CE6AB34AA35A9362277
:100CA700BB010CE58229F582E5833AF583E0225002
:100CB70006E92582F8E622BBFE06E92582F8E2224C
:0D0CC700E58229F582E5833AF583E4932266
:100CD400BB010689828A83F0225002F722BBFE01FF
:020CE400F322F9
:100CE600F8BB010DE58229F582E5833AF583E8F044
:100CF600225006E92582C8F622BBFE05E92582C8F0
:020D0600F222D7
:100D0800FAE6FB0808E6F925F0F618E6CA3AF622EC
:100F9E00EFB40A07740D120FA9740A309811A899AC
:100FAE00B8130CC2983098FDA899C298B811F630B3
:070FBE0099FDC299F599228B
:00000001FF
