:03000000020D8767
:0C0D8700787FE4F6D8FD758146020DCEA1
:100C580025642F2564202825642E25642900202D4D
:100C680020496E76616C696420636861726163749F
:100C780065722073656E740D0A002A2A2A2A2A2AA8
:100C88002A2A2A2A2A2A2A2A2A2A2A2A2A2A2A2ABC
:100C98002A2A2A2A2A2A2A2A2A0D0A002A2A2A2A13
:100CA8002A2A2A2A437269636B657473636F7265B3
:100CB8002A2A2A2A2A2A2A2A2A2A2A0D0A00507285
:100CC8006573732061206368617261637465722063
:100CD800746F2073746172742067616D650D0A000A
:100CE800496E6E696E677320456E647320202020FC
:010CF80000FB
:020FD600C10B4D
:100B5C00120E94120FA4120E59120FC47536FF7593
:100B6C00370C753858850E39850F3A85083B850941
:100B7C003C850C3D850D3E850A3F850B407B007AFC
:100B8C0000792212085C7F807E00120F807B007A35
:100B9C00007922120F37E50D6414450C6008E50945
:100BAC00640A45087005120EC380B1120FC48F324F
:100BBC00E532120D120C132E0C0B310C03320BFB05
:100BCC00330BF3340BEB350BE3360C1D650C1D6E40
:100BDC000C277700000C3F050FE50F7002050E0582
:100BEC000FE50F7002050E050FE50F7002050E05DF
:100BFC000FE50F7002050E050FE50F7002050E05CF
:100C0C000FE50F7002050E050BE50B7037050A801A
:100C1C0033050FE50F7014050E80100509E50970FA
:100C2C00020508050BE50B7002050A74E02532F588
:100C3C00328011AF32120FCE7BFF7A0C7966120F15
:0C0C4C0012020B68AF32120E13020B688C
:100E59007BFF7A0C7982120F127BFF7A0C79A4122C
:100E69000F127BFF7A0C7982120F127BFF7A0C79B1
:100E7900C6120F12E4F50EF50FF508F509F50CF594
:0B0E89000DF50AF50BF5107511CF22D6
:100E13008F33300B167F017E00120F807F647E00BC
:100E2300120F60C20B7510007511CFE50B640645F8
:100E33000A700EF50AF50B050DE50D7002050CD2CF
:100E43000BAF11AE10120F80AF33120F92E51115D5
:060E5300117002151022CF
:100EC3007FC07E00120F807BFF7A0C79E8120F3708
:100ED3007F887E13120F607F017E00120F807F6474
:080EE3007E00120F60020E599F
:040FD800C10AC10980
:100FA400758920758DCC759853D28ED2ACD2AF2270
:080FCE008F99300AFDC20A22CE
:100F12008B338A348935AB33AA34A935120CF96084
:100F2200130535E5357002053414F9120CF9FF1278
:050F32000FCE80E22259
:090FC400E4FF3009FDC209AF99F8
:010FCD002201
:03002300020FB415
:100FB400309905C299D20A32309804C298D20932C3
:040F5C007F047E0090
:100F6000E4FDFCC3ED9FEC9E5015E4FBFA0BBB00C7
:0F0F7000010ABA01F8BB63F50DBD00010C80E466
:010F7F00224F
:100E9400E4F5A0C282C280C2817F38FE120F8012A4
:100EA4000F5C7F06120F80120F5C7F0C120F8012F2
:0F0EB4000F5C7F01120F80120F5C7F80020F8096
:100F8000C280C281D2828FA07F0A7E00120F60C20F
:020F90008222BB
:100F9200D280C281D2828FA07F0A7E00120F60C2ED
:020FA2008222A9
:100F37008B338A348935AB33AA34A935120CF9605F
:100F4700130535E5357002053414F9120CF9FF1253
:050F57000F9280E22270
:100D9300020B5CE493A3F8E493A34003F68001F20F
:100DA30008DFF48029E493A3F85407240CC8C33361
:100DB300C4540F4420C8834004F456800146F6DF30
:100DC300E4800B0102040810204080900FD6E47EDB
:100DD300019360BCA3FF543F30E509541FFEE49325
:100DE300A360010ECF54C025E060A840B8E493A3EC
:100DF300FAE493A3F8E493A3C8C582C8CAC583CA17
:100E0300F0A3C8C582C8CAC583CADFE9DEE780BECE
:010FDC000014
:100CF900BB010689828A83E0225002E722BBFE02F9
:090D0900E32289828A83E493222B
:100D1200D083D082F8E4937012740193700DA3A370
:100D220093F8740193F5828883E473740293686084
:060D3200EFA3A3A380DF84
:10080000E5422436F8E6054222783330070278368E
:10081000E475F001120D77020CF92000EB7F2ED267
:10082000008018EF540F2490D43440D4FF30040BD0
:10083000EF24BFB41A0050032461FFE543600215A2
:10084000430546E5467002054530070D7833E475EB
:10085000F001120D77EF020D65020EEB7403D20763
:100860008003E4C207F5428B338A348935E4F543CB
:10087000F545F546E54360077F2012083B80F57596
:1008800044FFC201C200C202C203C205C206C208BE
:10089000120809FF700D3007057F0012084CAF46A3
:1008A000AE4522B4255FC2D5C204120809FF24D088
:1008B000B40A00501A75F00A784330D50508B6FF1F
:1008C0000106C6A426F620D5047002D20380D924DE
:1008D000CFB41A00EF5004C2E5D204020A4CD20190
:1008E00080C6D20080C0D20280BCD2D580BAD205E8
:1008F00080B47F2012083B2002077401B5430040FA
:10090000F1120800FF12083B020874D208D20680D8
:1009100095120800FB120800FA120800F94A4B7001
:1009200006791D7A0B7BFF20022EE543602A7E00AC
:100930008E82758300120D3860060EEE654470F0ED
:10094000C2D5EBC0E0EAC0E0E9C0E0EE120A93D005
:10095000E0F9D0E0FAD0E0FB120CF9FF60AAEBC09E
:10096000E0EAC0E0E9C0E012083BD0E02401F9D0A1
:10097000E03400FAD0E0FBE5440460DCD544D980E3
:10098000877BFF7A0A798FD202809C791080027966
:1009900008C206C2088008D2D5790A8004790AC242
:1009A000D5E544047002F544E4FAFDFEFF120800A8
:1009B000FC7B08200113120800FD7B1030000A1296
:1009C0000800FE120800FF7B20EC3382D592D55040
:1009D00013C3E43000069FFFE49EFEE42001039D64
:1009E000FDE49CFCE4CBF8C201EC700CCFCECDCC86
:1009F000E824F8F870F38017C3EF33FFEE33FEED11
:100A000033FDEC33FCEB33FB994002FB0FD8E9EBF1
:100A1000300105F8D0E0C448B201C0E00AEC4D4E08
:100A20004F78207B0070C2EAB5440040BCC0E012A1
:100A30000A95D0F0D0E0200104C4C0E0C4B201C0E7
:100A4000F0120824D0F0D5F0EB020874120D120950
:100A50001153098B5808E24C08DE42098F4F099761
:0F0A60004409974908F743099D550981460981C3
:100A6F00450981470B3D5008E62D08EA2E090D2B4D
:100A7F0008EE23090B200B262A08A64800000905BB
:100A8F003F3F3F00790AA2D5200314300509B91062
:100A9F00020404B9080104A2D52006025001042063
:100AAF0002689202B543005034C0E07F2030031932
:100ABF007F30A20272067205500F120AECC202C2F8
:100ACF0006C205C2087F30800F300503E9C0E0126F
:100ADF00083B300503D0E0F9D0E0B543CC30051723
:100AEF007F30B9100C12083B7F583004077F788095
:100AFF0003B9080312083B3002057F2D02083B7F24
:100B0F00202008F87F2B2006F322920280CF286E38
:100B1F00756C6C2900D2011208003001F8C20178FF
:100B2F004330D50108F60208A62D50434958120844
:100B3F00002403B405004001E4900B389312082CF5
:0D0B4F00743A12082CD20375430402098B7E
:100D3800BB010CE58229F582E5833AF583E0225070
:100D480006E92582F8E622BBFE06E92582F8E222BA
:0D0D5800E58229F582E5833AF583E49322D4
:100D6500BB010689828A83F0225002F722BBFE016D
:020D7500F32267
:100D7700FAE6FB0808E6F925F0F618E6CA3AF6227D
:100EEB00EFB40A07740D120EF6740A309811A89914
:100EFB00B8130CC2983098FDA899C298B811F63067
:070F0B0099FDC299F599223E
:00000001FF
